S020000054726166666963204C6967687420436F6E74726F6C6C65722E73726563E9
S11300000C942A000C943C000C9494010C943C0035
S11300100C943C000C943C000C943C000C943C006C
S11300200C943C000C943C000C943C000C943C005C
S11300300C943C000C943C000C943C000C943C004C
S11300400C943C000C943C000C943C000C943C003C
S11300500C943C0011241FBECFE5D8E0DEBFCDBF19
S113006020E0A0E6B0E001C01D92A236B207E1F79D
S11300700E94D1010C940D050C94000062E081E40F
S11300800E94C50161E081E40E94C50160E081E451
S11300900E94C50162E082E40E94C50161E082E43D
S11300A00E94C50160E082E40E94C5010E94CC0266
S11300B062E084E40E94BC010895CF9360E081E48F
S11300C00E94C90162E081E40E94CD0161E081E403
S11300D00E94CD0182E08093610088E893E10E9450
S11300E0D40260E081E40E94CD0181E0809361004C
S11300F0C0E011C061E081E40E94C90184EF91E095
S11301000E94D40261E081E40E94CD0184EF91E079
S11301100E94D402CF5FC53068F361E081E40E949D
S1130120CD011092610062E081E40E94C90188E877
S113013093E10E94D40262E081E40E94CD0181E057
S113014080936100C0E011C061E081E40E94C901B4
S113015084EF91E00E94D40261E081E40E94CD0129
S113016084EF91E00E94D402CF5FC53068F361E070
S113017081E40E94CD01CF910895CF9380916100D5
S1130180882321F0813009F44DC0C0C062E081E4CD
S11301900E94C90160E081E40E94CD0161E081E434
S11301A00E94CD0160E082E40E94C90162E082E421
S11301B00E94CD0161E082E40E94CD0188E893E1D0
S11301C00E94D40262E081E40E94CD01C0E019C023
S11301D061E081E40E94C90161E082E40E94C901F6
S11301E084EF91E00E94D40261E081E40E94CD0199
S11301F061E082E40E94CD0184EF91E00E94D40288
S1130200CF5FC53028F360E082E40E94CD0162E054
S113021081E40E94C90162E082E40E94C901109253
S1130220600074C062E081E40E94CD0160E081E47A
S11302300E94CD0161E081E40E94CD0160E082E48E
S11302400E94CD0162E082E40E94C90161E082E47F
S11302500E94CD0188E893E10E94D402C0E019C055
S113026061E081E40E94C90161E082E40E94C90165
S113027084EF91E00E94D40261E081E40E94CD0108
S113028061E082E40E94CD0184EF91E00E94D402F7
S1130290CF5FC53028F362E081E40E94C90160E0C9
S11302A082E40E94C90188E893E10E94D40262E0DA
S11302B081E40E94CD01C0E019C061E081E40E94A4
S11302C0C90161E082E40E94C90184EF91E00E94C7
S11302D0D40261E081E40E94CD0161E082E40E94E5
S11302E0CD0184EF91E00E94D402CF5FC53028F3A2
S11302F060E082E40E94CD0162E081E40E94C901D1
S113030062E082E40E94C90110926000CF910895D6
S113031080916000811103C00E945D00F9CF81309B
S1130320B9F70E94BD00F4CF1F920F920FB60F923F
S113033011242F933F934F935F936F937F938F93E6
S11303409F93AF93BF93EF93FF930E9440030E9448
S1130350BD000E944403FF91EF91BF91AF919F9123
S11303608F917F916F915F914F913F912F910F905A
S11303700FBE0F901F90189540E062E084E40E9445
S1130380D8018BB780648BBF089541E00E94D801E7
S1130390089541E00E945202089540E00E945202F2
S11303A008950E943E000E94880180E090E0089534
S11303B0823431F118F4813439F008958334E1F151
S11303C0843409F454C0089541110CC02AB381E067
S11303D090E002C0880F991F6A95E2F78095822306
S11303E08ABB0895413009F05CC02AB381E090E0F3
S11303F002C0880F991F6A95E2F7822B8ABB089581
S113040041110CC027B381E090E002C0880F991F0E
S11304106A95E2F78095822387BB0895413009F0FD
S113042040C027B381E090E002C0880F991F6A950D
S1130430E2F7822B87BB089541110CC024B381E0FD
S113044090E002C0880F991F6A95E2F78095822395
S113045084BB0895413029F524B381E090E002C0C3
S1130460880F991F6A95E2F7822B84BB0895411186
S11304700CC021B381E090E002C0880F991F6A95F7
S1130480E2F78095822381BB0895413051F421B372
S113049081E090E002C0880F991F6A95E2F7822BF1
S11304A081BB0895823431F118F4813439F0089510
S11304B08334E1F1843409F454C0089541110CC02B
S11304C02BB381E090E002C0880F991F6A95E2F790
S11304D0809582238BBB0895413009F05CC02BB317
S11304E081E090E002C0880F991F6A95E2F7822BA1
S11304F08BBB089541110CC028B381E090E002C089
S1130500880F991F6A95E2F78095822388BB089526
S1130510413009F040C028B381E090E002C0880F68
S1130520991F6A95E2F7822B88BB089541110CC08C
S113053025B381E090E002C0880F991F6A95E2F725
S11305408095822385BB0895413029F525B381E048
S113055090E002C0880F991F6A95E2F7822B85BB51
S1130560089541110CC022B381E090E002C0880FCD
S1130570991F6A95E2F78095822382BB08954130E2
S113058051F422B381E090E002C0880F991F6A956C
S1130590E2F7822B82BB089513BE8FB780688FBFAA
S11305A085B78C6085BF0895CF92DF92EF92FF925A
S11305B0CF93DF93EC01BC0180E090E00E945B04E8
S11305C06B017C012FE632E143E051E40E94B50364
S11305D088239CF4A70196016FE672E183E091E41D
S11305E00E9448032FE632E143E05DE30E94BA0330
S11305F00E942C04C1E0D0E029C0289721F12FE605
S113060032E143E051E4C701B6010E94BA030E94FB
S11306102C04EB01A70196016FE672E183E091E4FB
S11306200E9448032FE632E143E05DE30E94BA03EF
S11306309B01AC0160E070E080E893E40E94480311
S11306400E942C0403C060E0C1E0D0E062BF83B725
S1130650846083BF20E030E008C008B600FEFDCF10
S113066088B7816088BF2F5F3F4FC217D307A9F7B0
S113067013BEDF91CF91FF90EF90DF90CF9008955C
S11306808FB78F778FBF08958FB780688FBF089516
S11306905058BB27AA270E9460030C94D3040E94DD
S11306A0C50438F00E94CC0420F039F49F3F19F4BB
S11306B026F40C94C2040EF4E095E7FB0C94BC04FD
S11306C0E92F0E94E40458F3BA17620773078407FA
S11306D0950720F079F4A6F50C9406050EF4E09540
S11306E00B2EBA2FA02D0B01B90190010C01CA01E8
S11306F0A0011124FF27591B99F0593F50F4503E93
S113070068F11A16F040A22F232F342F4427585F84
S1130710F3CF469537952795A795F0405395C9F79C
S11307207EF41F16BA0B620B730B840BBAF0915054
S1130730A1F0FF0FBB1F661F771F881FC2F70EC0F3
S1130740BA0F621F731F841F48F4879577956795C6
S1130750B795F7959E3F08F0B0CF9395880F08F0B2
S11307609927EE0F9795879508950E94980408F4A9
S113077081E008950E94CE030C94D3040E94CC041B
S113078058F00E94C50440F029F45F3F29F00C940E
S1130790BC0451110C9407050C94C2040E94E40497
S11307A068F39923B1F3552391F3951B550BBB279C
S11307B0AA2762177307840738F09F5F5F4F220FE1
S11307C0331F441FAA1FA9F335D00E2E3AF0E0E8D8
S11307D032D091505040E695001CCAF72BD0FE2F22
S11307E029D0660F771F881FBB1F261737074807B6
S11307F0AB07B0E809F0BB0B802DBF01FF2793586E
S11308005F4F3AF09E3F510578F00C94BC040C9471
S113081007055F3FE4F3983ED4F386957795679593
S1130820B795F7959F5FC9F7880F911D96958795A2
S113083097F90895E1E0660F771F881FBB1F6217C1
S113084073078407BA0720F0621B730B840BBA0B7F
S1130850EE1F88F7E09508950E94EC0488F09F57F6
S113086098F0B92F9927B751B0F0E1F0660F771FD0
S1130870881F991F1AF0BA95C9F714C0B13091F0C6
S11308800E940605B1E008950C940605672F782FA1
S11308908827B85F39F0B93FCCF38695779567958B
S11308A0B395D9F73EF490958095709561957F4FF7
S11308B08F4F9F4F0895E89409C097FB3EF490959D
S11308C08095709561957F4F8F4F9F4F9923A9F025
S11308D0F92F96E9BB279395F695879577956795B4
S11308E0B795F111F8CFFAF4BB0F11F460FF1BC0F8
S11308F06F5F7F4F8F4F9F4F16C0882311F096E98B
S113090011C0772321F09EE8872F762F05C0662338
S113091071F096E8862F70E060E02AF09A95660FF1
S1130920771F881FDAF7880F9695879597F90895AA
S1130930990F0008550FAA0BE0E8FEEF16161706EC
S1130940E807F907C0F012161306E407F50798F054
S1130950621B730B840B950B39F40A2661F0232B6D
S1130960242B252B21F408950A2609F4A140A695E9
S11309708FEF811D811D089597F99F6780E870E0CE
S113098060E008959FEF80EC089500240A94161601
S1130990170618060906089500240A941216130669
S11309A0140605060895092E0394000C11F48823F7
S11309B052F0BB0F40F4BF2B11F460FF04C06F5F13
S11309C07F4F8F4F9F4F089557FD9058440F551FE9
S11309D059F05F3F71F04795880F97FB991F61F0BD
S11309E09F3F79F087950895121613061406551F34
S11309F0F2CF4695F1DF08C0161617061806991FA0
S1130A00F1CF86957105610508940895E894BB2794
S1110A1066277727CB0197F90895F894FFCF56
S9030000FC
