S020000054726166666963204C6967687420436F6E74726F6C6C65722E73726563E9
S11300000C942A000C94C7010C943F000C943F00FC
S11300100C943F000C943F000C943F000C943F0060
S11300200C943F000C943F000C943F000C943F0050
S11300300C943F000C943F000C943F000C943F0040
S11300400C943F000C943F000C943F000C943F0030
S11300500C943F0011241FBECFE5D8E0DEBFCDBF16
S113006010E0A0E6B0E0ECE6FAE002C005900D92E4
S1130070A236B107D9F70E9400020C9434050C94FF
S1130080000060E081E40E94F40161E081E40E94E8
S1130090F40162E081E40E94F40160E082E40E94E1
S11300A0F40161E082E40E94F40162E082E40E94CF
S11300B0F4010E94FB0262E084E40E94EB010895D3
S11300C0CF93C0E019C061E081E40E94F80161E0CF
S11300D082E40E94F80184EF91E00E94030361E04E
S11300E081E40E94FC0161E082E40E94FC0184EF4F
S11300F091E00E940303CF5FC53028F3CF910895A8
S1130100CF9341E060E084E40E94810262E081E4F4
S11301100E94FC0160E081E40E94FC0161E081E452
S11301200E94FC0162E082E40E94FC0161E082E43E
S11301300E94FC0160E082E40E94FC0162E081E430
S11301400E94F80160E082E40E94F80182E080935A
S1130150600088E893E10E94030362E081E40E9466
S1130160FC0181E080936000C0E011C061E081E4A3
S11301700E94F80184EF91E00E94030361E081E4AE
S11301800E94FC0184EF91E00E940303CF5FC5301D
S113019068F361E081E40E94FC011092600060E079
S11301A081E40E94F80160E082E40E94FC0162E0C4
S11301B082E40E94F80188E893E10E94030360E06E
S11301C081E40E94FC0162E082E40E94FC0160E0A0
S11301D082E40E94F80181E080936000C0E011C0D5
S11301E061E081E40E94F80184EF91E00E9403033E
S11301F061E081E40E94FC0184EF91E00E9403032A
S1130200CF5FC53068F361E081E40E94FC01CF91C7
S11302100895CF9380916000813009F445C020F0A7
S1130220823009F483C0AEC060E081E40E94F8012A
S113023062E082E40E94F80188E893E10E940303EB
S113024060E081E40E94FC01C0E011C061E081E44F
S11302500E94F80184EF91E00E94030361E081E4CD
S11302600E94FC0184EF91E00E940303CF5FC5303C
S113027068F362E082E40E94FC0160E082E40E9490
S1130280F80162E081E40E94F80188E893E10E94A9
S1130290030362E081E40E94FC010E94600060E0CC
S11302A081E40E94F8016EC00E94600060E081E475
S11302B00E94F80162E082E40E94F80160E082E4B6
S11302C00E94FC0188E893E10E94030360E081E45A
S11302D00E94FC010E94600062E082E40E94FC0132
S11302E062E081E40E94F80160E082E40E94F80187
S11302F088E893E10E94030362E081E40E94FC0128
S1130300C0E011C061E081E40E94F80184EF91E053
S11303100E94030361E081E40E94FC0184EF91E008
S11303200E940303CF5FC53068F32CC00E946000B5
S113033060E081E40E94F80162E081E40E94FC0133
S113034062E082E40E94F80160E082E40E94FC0121
S113035088E893E10E94030360E081E40E94FC01C9
S11303600E94600062E082E40E94FC0160E082E49A
S11303700E94F80162E081E40E94F80188E893E1B8
S11303800E940303CF9108950E948000FDCF1F9225
S11303900F920FB60F9211242F933F934F935F93B5
S11303A06F937F938F939F93AF93BF93EF93FF9339
S11303B00E940901FF91EF91BF91AF919F918F919D
S11303C07F916F915F914F913F912F910F900FBE4D
S11303D00F901F90189540E062E084E40E940702A9
S11303E08BB780648BBF089541E00E940702089593
S11303F041E00E948102089540E00E948102089534
S11304000E9441000E94C40180E090E0089582347B
S113041031F118F4813439F008958334E1F18434EE
S113042009F454C0089541110CC02AB381E090E04E
S113043002C0880F991F6A95E2F7809582238ABBD0
S11304400895413009F05CC02AB381E090E002C015
S1130450880F991F6A95E2F7822B8ABB0895411190
S11304600CC027B381E090E002C0880F991F6A9501
S1130470E2F78095822387BB0895413009F040C09C
S113048027B381E090E002C0880F991F6A95E2F7D4
S1130490822B87BB089541110CC024B381E090E006
S11304A002C0880F991F6A95E2F78095822384BB66
S11304B00895413029F524B381E090E002C0880F0B
S11304C0991F6A95E2F7822B84BB089541110CC0F1
S11304D021B381E090E002C0880F991F6A95E2F78A
S11304E08095822381BB0895413051F421B381E08A
S11304F090E002C0880F991F6A95E2F7822B81BBB6
S11305000895823431F118F4813439F00895833434
S1130510E1F1843409F454C0089541110CC02BB3A3
S113052081E090E002C0880F991F6A95E2F78095F8
S113053082238BBB0895413009F05CC02BB381E06A
S113054090E002C0880F991F6A95E2F7822B8BBB5B
S1130550089541110CC028B381E090E002C0880FD7
S1130560991F6A95E2F78095822388BB08954130EC
S113057009F040C028B381E090E002C0880F991FC1
S11305806A95E2F7822B88BB089541110CC025B30C
S113059081E090E002C0880F991F6A95E2F7809588
S11305A0822385BB0895413029F525B381E090E08D
S11305B002C0880F991F6A95E2F7822B85BB0895C4
S11305C041110CC022B381E090E002C0880F991F52
S11305D06A95E2F78095822382BB0895413051F4F5
S11305E022B381E090E002C0880F991F6A95E2F778
S11305F0822B82BB089513BE8FB780688FBF85B7E7
S1130600836085BF0895CF92DF92EF92FF92CF93DC
S1130610DF93EC01BC0180E090E00E9482046B0156
S11306207C012FE632E143E051E40E94DC0388239D
S11306309CF4A70196016FE672E183E091E40E94C5
S11306406F032FE632E143E05DE30E94E1030E9481
S11306505304C1E0D0E029C0289721F12FE632E10C
S113066043E051E4C701B6010E94E1030E94530430
S1130670EB01A70196016FE672E183E091E40E9429
S11306806F032FE632E143E05DE30E94E1039B0147
S1130690AC0160E070E080E893E40E946F030E9484
S11306A0530403C060E0C1E0D0E062BF83B784605C
S11306B083BF20E030E008C008B600FEFDCF88B755
S11306C0816088BF2F5F3F4FC217D307A9F713BEBE
S11306D0DF91CF91FF90EF90DF90CF900895505825
S11306E0BB27AA270E9487030C94FA040E94EC04F7
S11306F038F00E94F30420F039F49F3F19F426F4F3
S11307000C94E9040EF4E095E7FB0C94E304E92F60
S11307100E940B0558F3BA176207730784079507FD
S113072020F079F4A6F50C942D050EF4E0950B2E2B
S1130730BA2FA02D0B01B90190010C01CA01A0012F
S11307401124FF27591B99F0593F50F4503E68F18A
S11307501A16F040A22F232F342F4427585FF3CFCB
S1130760469537952795A795F0405395C9F77EF49C
S11307701F16BA0B620B730B840BBAF09150A1F0E5
S1130780FF0FBB1F661F771F881FC2F70EC0BA0F6B
S1130790621F731F841F48F4879577956795B795F3
S11307A0F7959E3F08F0B0CF9395880F08F09927EE
S11307B0EE0F9795879508950E94BF0408F481E091
S11307C008950E94F5030C94FA040E94F30458F06F
S11307D00E94EC0440F029F45F3F29F00C94E304F8
S11307E051110C942E050C94E9040E940B0568F336
S11307F09923B1F3552391F3951B550BBB27AA27D6
S113080062177307840738F09F5F5F4F220F331F0F
S1130810441FAA1FA9F335D00E2E3AF0E0E832D0D7
S113082091505040E695001CCAF72BD0FE2F29D0DA
S1130830660F771F881FBB1F261737074807AB07AC
S1130840B0E809F0BB0B802DBF01FF2793585F4F21
S11308503AF09E3F510578F00C94E3040C942E0575
S11308605F3FE4F3983ED4F3869577956795B79503
S1130870F7959F5FC9F7880F911D9695879597F90E
S11308800895E1E0660F771F881FBB1F6217730787
S11308908407BA0720F0621B730B840BBA0BEE1F9C
S11308A088F7E09508950E94130588F09F5798F003
S11308B0B92F9927B751B0F0E1F0660F771F881F61
S11308C0991F1AF0BA95C9F714C0B13091F00E947B
S11308D02D05B1E008950C942D05672F782F8827F6
S11308E0B85F39F0B93FCCF3869577956795B395A2
S11308F0D9F73EF490958095709561957F4F8F4F11
S11309009F4F0895E89409C097FB3EF49095809515
S1130910709561957F4F8F4F9F4F9923A9F0F92FC1
S113092096E9BB279395F695879577956795B7953F
S1130930F111F8CFFAF4BB0F11F460FF1BC06F5F25
S11309407F4F8F4F9F4F16C0882311F096E911C037
S1130950772321F09EE8872F762F05C0662371F058
S113096096E8862F70E060E02AF09A95660F771F6C
S1130970881FDAF7880F9695879597F90895990F48
S11309800008550FAA0BE0E8FEEF16161706E80755
S1130990F907C0F012161306E407F50798F0621B76
S11309A0730B840B950B39F40A2661F0232B242B4B
S11309B0252B21F408950A2609F4A140A6958FEF6A
S11309C0811D811D089597F99F6780E870E060E0BC
S11309D008959FEF80EC089500240A9416161706D4
S11309E018060906089500240A941216130614061C
S11309F005060895092E0394000C11F4882352F07F
S1130A00BB0F40F4BF2B11F460FF04C06F5F7F4F36
S1130A108F4F9F4F089557FD9058440F551F59F01D
S1130A205F3F71F04795880F97FB991F61F09F3FD7
S1130A3079F087950895121613061406551FF2CF00
S1130A404695F1DF08C0161617061806991FF1CF50
S1130A5086957105610508940895E894BB27662777
S10F0A607727CB0197F90895F894FFCF95
S1050A6C020082
S9030000FC
