S020000054726166666963204C6967687420436F6E74726F6C6C65722E73726563E9
S11300000C942A000C94CC010C943F000C943F00F7
S11300100C943F000C943F000C943F000C943F0060
S11300200C943F000C943F000C943F000C943F0050
S11300300C943F000C943F000C943F000C943F0040
S11300400C943F000C943F000C943F000C943F0030
S11300500C943F0011241FBECFE5D8E0DEBFCDBF16
S113006010E0A0E6B0E0E6E7FAE002C005900D92E9
S1130070A236B107D9F70E9405020C9439050C94F5
S1130080000060E081E40E94F90161E081E40E94E3
S1130090F90162E081E40E94F90160E082E40E94D7
S11300A0F90161E082E40E94F90162E082E40E94C5
S11300B0F9010E94000362E084E40E94F00141E03F
S11300C060E084E40E940C020895CF93C0E019C05C
S11300D061E081E40E94FD0161E082E40E94FD018F
S11300E084EF91E00E94080361E081E40E94010230
S11300F061E082E40E94010284EF91E00E9408031F
S1130100CF5FC53028F3CF910895CF9341E060E0ED
S113011084E40E94860262E081E40E94010260E0BD
S113012081E40E94010261E081E40E94010262E034
S113013082E40E94010261E082E40E94010260E024
S113014082E40E94010262E081E40E94FD0160E019
S113015082E40E94FD0182E08093600088E893E1DC
S11301600E94080362E081E40E94010281E080931E
S11301706000C0E011C061E081E40E94FD0184EFF1
S113018091E00E94080361E081E40E94010284EF8F
S113019091E00E940803CF5FC53068F361E081E419
S11301A00E9401021092600060E081E40E94FD015F
S11301B060E082E40E94010262E082E40E94FD01A8
S11301C088E893E10E94080360E081E40E94010250
S11301D062E082E40E94010260E082E40E94FD0188
S11301E081E080936000C0E011C061E081E40E947E
S11301F0FD0184EF91E00E94080361E081E40E9424
S1130200010284EF91E00E940803CF5FC53068F3D8
S113021061E081E40E940102CF910895CF9380911F
S11302206000813009F445C020F0823009F483C0B5
S1130230AEC060E081E40E94FD0162E082E40E94BD
S1130240FD0188E893E10E94080360E081E40E94D4
S11302500102C0E011C061E081E40E94FD0184EF6D
S113026091E00E94080361E081E40E94010284EFAE
S113027091E00E940803CF5FC53068F362E082E436
S11302800E94010260E082E40E94FD0162E081E4D8
S11302900E94FD0188E893E10E94080362E081E482
S11302A00E9401020E94650060E081E40E94FD0159
S11302B06EC00E94650060E081E40E94FD0162E07E
S11302C082E40E94FD0160E082E40E94010288E869
S11302D093E10E94080360E081E40E9401020E940D
S11302E0650062E082E40E94010262E081E40E940F
S11302F0FD0160E082E40E94FD0188E893E10E9430
S1130300080362E081E40E940102C0E011C061E0E0
S113031081E40E94FD0184EF91E00E94080361E002
S113032081E40E94010284EF91E00E940803CF5F00
S1130330C53068F32CC00E94650060E081E40E942F
S1130340FD0162E081E40E94010262E082E40E9415
S1130350FD0160E082E40E94010288E893E10E94CA
S1130360080360E081E40E9401020E94650062E0EB
S113037082E40E94010260E082E40E94FD0162E0E6
S113038081E40E94FD0188E893E10E940803CF9173
S113039008950E948500FDCF1F920F920FB60F9211
S11303A011242F933F934F935F936F937F938F9376
S11303B09F93AF93BF93EF93FF930E940E01FF911E
S11303C0EF91BF91AF919F918F917F916F915F91C9
S11303D04F913F912F910F900FBE0F901F90189542
S11303E040E062E084E40E940C028BB780648BBF1F
S11303F0089541E00E940C02089541E00E948602A3
S1130400089540E00E94860208950E9441000E94DF
S1130410C90180E090E00895823431F118F4813408
S113042039F008958334E1F1843409F454C0089513
S113043041110CC02AB381E090E002C0880F991FDB
S11304406A95E2F7809582238ABB0895413009F0CA
S11304505CC02AB381E090E002C0880F991F6A95BE
S1130460E2F7822B8ABB089541110CC027B381E0C7
S113047090E002C0880F991F6A95E2F78095822365
S113048087BB0895413009F040C027B381E090E074
S113049002C0880F991F6A95E2F7822B87BB0895E3
S11304A041110CC024B381E090E002C0880F991F71
S11304B06A95E2F78095822384BB0895413029F53B
S11304C024B381E090E002C0880F991F6A95E2F797
S11304D0822B84BB089541110CC021B381E090E0CC
S11304E002C0880F991F6A95E2F78095822381BB29
S11304F00895413051F421B381E090E002C0880FA7
S1130500991F6A95E2F7822B81BB0895823431F1F9
S113051018F4813439F008958334E1F1843409F412
S113052054C0089541110CC02BB381E090E002C087
S1130530880F991F6A95E2F7809582238BBB0895F3
S1130540413009F05CC02BB381E090E002C0880F19
S1130550991F6A95E2F7822B8BBB089541110CC059
S113056028B381E090E002C0880F991F6A95E2F7F2
S11305708095822388BB0895413009F040C028B398
S113058081E090E002C0880F991F6A95E2F7822B00
S113059088BB089541110CC025B381E090E002C0EE
S11305A0880F991F6A95E2F78095822385BB089589
S11305B0413029F525B381E090E002C0880F991FEE
S11305C06A95E2F7822B85BB089541110CC022B3D2
S11305D081E090E002C0880F991F6A95E2F7809548
S11305E0822382BB0895413051F422B381E090E02C
S11305F002C0880F991F6A95E2F7822B82BB089587
S113060013BE8FB780688FBF85B7836085BF089599
S1130610CF92DF92EF92FF92CF93DF93EC01BC0174
S113062080E090E00E9487046B017C012FE632E1B8
S113063043E051E40E94E10388239CF4A70196015E
S11306406FE672E183E091E40E9474032FE632E1E5
S113065043E05DE30E94E6030E945804C1E0D0E059
S113066029C0289721F12FE632E143E051E4C70184
S1130670B6010E94E6030E945804EB01A70196010B
S11306806FE672E183E091E40E9474032FE632E1A5
S113069043E05DE30E94E6039B01AC0160E070E08F
S11306A080E893E40E9474030E94580403C060E04D
S11306B0C1E0D0E062BF83B7846083BF20E030E054
S11306C008C008B600FEFDCF88B7816088BF2F5FE1
S11306D03F4FC217D307A9F713BEDF91CF91FF9005
S11306E0EF90DF90CF9008955058BB27AA270E941F
S11306F08C030C94FF040E94F10438F00E94F80467
S113070020F039F49F3F19F426F40C94EE040EF40F
S1130710E095E7FB0C94E804E92F0E94100558F3D8
S1130720BA17620773078407950720F079F4A6F5D2
S11307300C9432050EF4E0950B2EBA2FA02D0B016C
S1130740B90190010C01CA01A0011124FF27591B12
S113075099F0593F50F4503E68F11A16F040A22F18
S1130760232F342F4427585FF3CF46953795279589
S1130770A795F0405395C9F77EF41F16BA0B620B88
S1130780730B840BBAF09150A1F0FF0FBB1F661FCF
S1130790771F881FC2F70EC0BA0F621F731F841F12
S11307A048F4879577956795B795F7959E3F08F038
S11307B0B0CF9395880F08F09927EE0F97958795FA
S11307C008950E94C40408F481E008950E94FA0385
S11307D00C94FF040E94F80458F00E94F10440F0C5
S11307E029F45F3F29F00C94E80451110C9433056B
S11307F00C94EE040E94100568F39923B1F3552379
S113080091F3951B550BBB27AA276217730784071F
S113081038F09F5F5F4F220F331F441FAA1FA9F3B5
S113082035D00E2E3AF0E0E832D091505040E695A3
S1130830001CCAF72BD0FE2F29D0660F771F881F04
S1130840BB1F261737074807AB07B0E809F0BB0BF7
S1130850802DBF01FF2793585F4F3AF09E3F51050B
S113086078F00C94E8040C9433055F3FE4F3983E6D
S1130870D4F3869577956795B795F7959F5FC9F7F4
S1130880880F911D9695879597F90895E1E0660F75
S1130890771F881FBB1F621773078407BA0720F0EE
S11308A0621B730B840BBA0BEE1F88F7E095089557
S11308B00E94180588F09F5798F0B92F9927B751CF
S11308C0B0F0E1F0660F771F881F991F1AF0BA95F0
S11308D0C9F714C0B13091F00E943205B1E0089517
S11308E00C943205672F782F8827B85F39F0B93F09
S11308F0CCF3869577956795B395D9F73EF49095A3
S11309008095709561957F4F8F4F9F4F0895E89420
S113091009C097FB3EF490958095709561957F4F43
S11309208F4F9F4F9923A9F0F92F96E9BB279395F1
S1130930F695879577956795B795F111F8CFFAF401
S1130940BB0F11F460FF1BC06F5F7F4F8F4F9F4F32
S113095016C0882311F096E911C0772321F09EE890
S1130960872F762F05C0662371F096E8862F70E0F6
S113097060E02AF09A95660F771F881FDAF7880FD0
S11309809695879597F90895990F0008550FAA0B26
S1130990E0E8FEEF16161706E807F907C0F012168E
S11309A01306E407F50798F0621B730B840B950B91
S11309B039F40A2661F0232B242B252B21F40895E6
S11309C00A2609F4A140A6958FEF811D811D089583
S11309D097F99F6780E870E060E008959FEF80ECEE
S11309E0089500240A941616170618060906089591
S11309F000240A9412161306140605060895092EF7
S1130A000394000C11F4882352F0BB0F40F4BF2B65
S1130A1011F460FF04C06F5F7F4F8F4F9F4F0895A5
S1130A2057FD9058440F551F59F05F3F71F047959B
S1130A30880F97FB991F61F09F3F79F08795089580
S1130A40121613061406551FF2CF4695F1DF08C09F
S1130A50161617061806991FF1CF869571056105BC
S1130A6008940895E894BB2766277727CB0197F964
S1090A700895F894FFCF85
S1050A76020078
S9030000FC
